:100000000C942E000C9439060C94A3060C94A306B1
:100010000C94A3060C94A3060C94A3060C94A306BC
:100020000C94A3060C94A3060C94A3060C94A306AC
:100030000C94A3060C94A3060C94A3060C94A3069C
:100040000C94A3060C94A3060C94A3060C94A3068C
:100050000C94A30600600063000D580011241FBE1D
:10006000CFE5D8E0DEBFCDBFE4E5F0E040E017C06B
:10007000B591A59135912591059107FD0CC09591FC
:100080008591EF01F92FE82F05900D92A217B30784
:10009000D9F7FE0104C01D92A217B307E1F7EB35B3
:1000A000F40731F70E9479060C944506F894FFCFC7
:1000B000CF9380916000811107C0909162009130D0
:1000C00019F0923009F0E6C0811103C081E08093FD
:1000D000620061E082E00E94940662E082E00E9499
:1000E000940660E082E00E94900680916200813078
:1000F00041F120F0823009F4A3C0C6C062E080E084
:100100000E94940661E080E00E94940660E080E036
:100110000E949006C0E00DC040E054E06DEC7CEC25
:100120008CEC9DE30E94AA0180916000882319F065
:10013000CF5FC23388F381E0809362001092610048
:1001400007C180916000811159C0809161008823AE
:1001500049F160E082E00E949006C0E021C061E0C9
:1001600080E00E94900661E082E00E94900640E0FC
:1001700054E060E070E080E09FE30E94AA0161E04B
:1001800080E00E94940661E082E00E94940640E0D4
:1001900054E060E070E080E09FE30E94AA01CF5F3E
:1001A000C530E8F281E0809361001092620060E067
:1001B00080E00E94900625C061E080E00E949006E9
:1001C00040E054E060E070E080E09FE30E94AA011C
:1001D00061E080E00E94940640E054E060E070E05E
:1001E00080E09FE30E94AA0180916000811104C019
:1001F00081E08093610005C0CF5F01C0C0E0C530E1
:10020000D8F261E080E00E94940661E082E00E9402
:10021000940680916100823031F41092620081E096
:100220008093610095C0811193C082E08093620049
:1002300081E08093610064E082E00E94900688C0C3
:1002400062E080E00E94900661E080E00E949406F7
:1002500060E080E00E949406C0E00DC040E054E001
:100260006DEC7CEC8CEC9DE30E94AA018091600017
:10027000882319F0CF5FC23388F381E08093620056
:1002800082E08093610064C082E0809362001092FB
:1002900061005EC062E082E00E94900661E082E060
:1002A0000E94940660E082E00E949406C0E015C0BF
:1002B00062E080E00E94940661E080E00E94940683
:1002C00060E080E00E94900640E054E060E070E072
:1002D00080E09FE30E94AA01CF5FCA3048F3C0E0EC
:1002E00021C061E080E00E94900661E082E00E940F
:1002F000900640E054E060E070E080E09FE30E9400
:10030000AA0161E080E00E94940661E082E00E9420
:10031000940640E054E060E070E080E09FE30E94DB
:10032000AA01CF5FC530E8F261E080E00E94940648
:1003300061E082E00E94940660E082E00E94900604
:1003400081E08093600092E090936200809361006E
:04035000CF910895AC
:100354004F925F926F927F928F929F92AF92BF92D1
:10036400CF92DF92EF92FF920F931F93CF93DF937D
:100374006B017C018A0113BEBA01550F880B990BDE
:100384000E94520520E034E244E759E40E949806B2
:100394004B015C0120E030E040E853E40E949C06FD
:1003A4002B013C01A70196010E94830618167CF4D8
:1003B400A7019601C301B2010E945006A501940150
:1003C4000E9498060E945706C1E0D0E043C0C301D2
:1003D400B2010E945706072E000C880B990B0E944D
:1003E40052059B01AC01C701B6010E947E06882319
:1003F40071F1A3019201C701B6010E9498060E94FF
:1004040071020E9457062B013C01EB01A5019401E6
:10041400C701B6010E9498066B017C01B201550C1C
:10042400880B990B0E9452059B01AC01C701B601D0
:100434000E9498069B01AC0160E070E080E893E4C0
:100444000E9450060E9471020E94570603C060E099
:10045400C1E0D0E0962F62BF0034110589F024F486
:100464000830110549F01AC0011581E0180761F040
:100474000115144079F012C083B7826083BF07C0AE
:1004840083B7836083BF03C083B7846083BF20E0E6
:1004940030E011C083B7856083BFF9CF83B7816033
:1004A40083BFF5CF08B600FEFDCF88B7816088BF53
:1004B40092BF2F5F3F4F2C173D07A4F3DF91CF91DD
:1004C4001F910F91FF90EF90DF90CF90BF90AF906E
:0E04D4009F908F907F906F905F904F90089553
:1004E2004F925F926F927F928F929F92AF92BF9242
:1004F200CF92DF92EF92FF92CF93DF93CDB7DEB729
:1005020028970FB6F894DEBF0FBECDBF6B017C01FA
:10051200DC01CB0147E1B695A795979587954A955A
:10052200D1F799278F579109873191059CF597FD4E
:1005320036C088248A94982C3FE7A32EB12C04C09D
:10054200B594A794979487948A95D2F7D501C4015C
:100552008C219D21AE21BF21892B8A2B8B2BD1F09F
:1005620020E030E040E85BE7C701B6010E94510697
:100572006D837E838F839887F7FC04C0C80CD91CD7
:10058200EA1CFB1C80949094A094B094C820D920BB
:10059200EA20FB205C2D4D2D3E2D2F2D21C020E089
:1005A20030E040E85BE7C701B6010E94510669836B
:1005B2007A838B839C83F7FC0FC0D701C601880F17
:1005C200991FAA1FBB1F892B8A2B8B2B19F350E073
:1005D20040E030E82FE304C050E040E030E020E8A3
:1005E200652F742F832F922F28960FB6F894DEBFB3
:1005F2000FBECDBFDF91CF91FF90EF90DF90CF90F4
:10060200BF90AF909F908F907F906F905F904F9030
:02061200089549
:10061400683008F078C041113CC0813099F028F06E
:100624008230E9F0833041F170C02AB381E090E078
:1006340002C0880F991F6A95E2F7809582238ABBCE
:1006440080E0089527B381E090E002C0880F991FED
:100654006A95E2F78095822387BB80E0089524B3EE
:1006640081E090E002C0880F991F6A95E2F78095B7
:10067400822384BB80E0089521B381E090E002C02E
:10068400880F991F6A95E2F78095822381BB80E0E9
:1006940008954130E1F5813091F028F08230D9F0AD
:1006A400833029F136C02AB381E090E002C0880F7C
:1006B400991F6A95E2F7822B8ABB80E0089527B3DD
:1006C40081E090E002C0880F991F6A95E2F7822BBF
:1006D40087BB80E0089524B381E090E002C0880FD6
:1006E400991F6A95E2F7822B84BB80E0089521B3B9
:1006F40081E090E002C0880F991F6A95E2F7822B8F
:1007040081BB80E0089581E0089581E0089581E04F
:06071400089581E0089544
:10071A00683008F078C041113CC0813099F028F067
:10072A008230E9F0833041F170C02BB381E090E070
:10073A0002C0880F991F6A95E2F7809582238BBBC6
:10074A0080E0089528B381E090E002C0880F991FE5
:10075A006A95E2F78095822388BB80E0089525B3E5
:10076A0081E090E002C0880F991F6A95E2F78095B0
:10077A00822385BB80E0089522B381E090E002C025
:10078A00880F991F6A95E2F78095822382BB80E0E1
:10079A0008954130E1F5813091F028F08230D9F0A6
:1007AA00833029F136C02BB381E090E002C0880F74
:1007BA00991F6A95E2F7822B8BBB80E0089528B3D4
:1007CA0081E090E002C0880F991F6A95E2F7822BB8
:1007DA0088BB80E0089525B381E090E002C0880FCD
:1007EA00991F6A95E2F7822B85BB80E0089522B3B0
:1007FA0081E090E002C0880F991F6A95E2F7822B88
:10080A0082BB80E0089581E0089581E0089581E047
:06081A00089581E008953D
:1008200010C00E94650658F00E945E0640F029F450
:100830005F3F29F00C94730651110C946D060C94D3
:10084000A0060E94060668F39923B1F3552391F39D
:10085000951B550BBB27AA2762177307840738F02F
:100860009F5F5F4F220F331F441FAA1FA9F335D08C
:100870000E2E3AF0E0E832D091505040E695001C40
:10088000CAF72BD0FE2F29D0660F771F881FBB1FFA
:10089000261737074807AB07B0E809F0BB0B802DD8
:1008A000BF01FF2793585F4F3AF09E3F510578F004
:1008B0000C9473060C946D065F3FE4F3983ED4F3FA
:1008C000869577956795B795F7959F5FC9F7880FD8
:1008D000911D9695879597F90895E1E0660F771F2A
:1008E000881FBB1F621773078407BA0720F0621BBB
:0E08F000730B840BBA0BEE1F88F7E09508958A
:1008FE000FC00E945E0638F00E94650620F0952318
:10090E0011F00C9473060C94A00611240C946D0631
:10091E000E94060670F3959FC1F3950F50E0551F88
:10092E00629FF001729FBB27F00DB11D639FAA2736
:10093E00F00DB11DAA1F649F6627B00DA11D661F85
:10094E00829F2227B00DA11D621F739FB00DA11DA6
:10095E00621F839FA00D611D221F749F3327A00D60
:10096E00611D231F849F600D211D822F762F6A2FFC
:10097E0011249F5750409AF0F1F088234AF0EE0F61
:10098E00FF1FBB1F661F771F881F91505040A9F78E
:10099E009E3F510580F00C9473060C946D065F3FDC
:1009AE00E4F3983ED4F3869577956795B795F795CA
:1009BE00E7959F5FC1F7FE2B880F911D9695879542
:0409CE0097F90895F8
:1009D20011C00E945E0638F00E94650620F039F4CC
:1009E2009F3F19F426F40C94A0060EF4E095E7FB61
:1009F2000C947306E92F0E94060658F3BA17620791
:100A020073078407950720F079F4A6F50C946C0619
:100A12000EF4E0950B2EBA2FA02D0B01B901900117
:100A22000C01CA01A0011124FF27591B99F0593F5B
:100A320050F4503E68F11A16F040A22F232F342FA3
:100A42004427585FF3CF469537952795A795F040F1
:100A52005395C9F77EF41F16BA0B620B730B840B06
:100A6200BAF09150A1F0FF0FBB1F661F771F881FBE
:100A7200C2F70EC0BA0F621F731F841F48F4879516
:100A820077956795B795F7959E3F08F0B0CF939508
:0E0A9200880F08F09927EE0F97958795089525
:100AA000E89409C097FB3EF4909580957095619508
:100AB0007F4F8F4F9F4F9923A9F0F92F96E9BB27BE
:100AC0009395F695879577956795B795F111F8CF3A
:100AD000FAF4BB0F11F460FF1BC06F5F7F4F8F4FA5
:100AE0009F4F16C0882311F096E911C0772321F09B
:100AF0009EE8872F762F05C0662371F096E8862F33
:100B000070E060E02AF09A95660F771F881FDAF789
:0A0B1000880F9695879597F90895D0
:100B1A000E940E0688F09F5798F0B92F9927B7516F
:100B2A00B0F0E1F0660F771F881F991F1AF0BA9587
:100B3A00C9F714C0B13091F00E946C06B1E0089573
:100B4A000C946C06672F782F8827B85F39F0B93F65
:100B5A00CCF3869577956795B395D9F73EF490953A
:0E0B6A008095709561957F4F8F4F9F4F089536
:100B780060E080E00E948C0661E080E00E948C06C4
:100B880062E080E00E948C0660E082E00E948C06B1
:100B980061E082E00E948C0662E082E00E948C069E
:100BA80060E083E00E9488060E94A506789485B7D5
:0C0BB800836085BF8BB780648BBF0895FD
:100BC400990F0008550FAA0BE0E8FEEF161617065A
:100BD400E807F907C0F012161306E407F50798F0C2
:100BE400621B730B840B950B39F40A2661F0232BDB
:100BF400242B252B21F408950A2609F4A140A69557
:080C04008FEF811D811D089591
:100C0C0057FD9058440F551F59F05F3F71F04795B1
:100C1C00880F97FB991F61F09F3F79F08795089596
:100C2C00121613061406551FF2CF4695F1DF08C0B5
:100C3C00161617061806991FF1CF869571056105D2
:040C4C00089408956B
:100C5000092E0394000C11F4882352F0BB0F40F4CA
:100C6000BF2B11F460FF04C06F5F7F4F8F4F9F4F0A
:020C70000895E5
:100C72001F920F920FB60F921124109260000F90E4
:080C82000FBE0F901F901895A2
:100C8A00EC010E94AA060E94A906CE010E94AB06A8
:060C9A00CE010E94A70636
:0E0CA0005058BB27AA270E94E9040C9428068E
:0E0CAE000E948D056894B1110C946D06089596
:0E0CBC0000240A941616170618060906089555
:0E0CCA0000240A941216130614060506089557
:0E0CD800E894BB2766277727CB0197F908958C
:0C0CE60097F99F6780E870E060E00895D7
:0A0CF2000E94BC050E945800FDCFCF
:0A0CFC000E94E20508F481E008956B
:0A0D06000E94E20508F48FEF089543
:080D100040E00E940A0308956F
:080D180041E00E940A03089566
:080D200041E00E948D030895DB
:080D280040E00E948D030895D4
:080D30000E9410040C94280637
:080D38000E947F040C942806C0
:060D40009FEF80EC089516
:040D46000C94000009
:040D4A0013BE089537
:040D4E000E945600A9
:020D5200089502
:020D5400089500
:020D56000895FE
:010D58000199
:010D59000198
:010D5A000296
:00000001FF
